:020000040800F2
:10300000E0530020993200086D7600080174000832
:1030100069760008E55000086DAB0008000000006C
:10302000000000000000000000000000AD310008BA
:10303000C165000800000000353200088532000834
:1030400071AB000869780008B3320008DF7D000822
:10305000B3320008B3320008C3650008B332000879
:10306000B3320008B3320008B3320008495D0008EB
:10307000155E0008175E0008195E00081B5E000858
:10308000B3320008B3320008B3320008B33200088C
:1030900019AB0008B3320008B3320008C565000858
:1030A000B3320008B3320008B3320008B33200086C
:1030B000698600086D860008B3320008B332000844
:1030C000B3320008B3320008B3320008B33200084C
:1030D000B33200082DA10008B3320008B332000853
:1030E000B3320008DD7D0008B3320008B3320008B7
:1030F000B3320008B332000835870008B332000845
:10310000B3320008B3320008B3320008B33200080B
:10311000B3320008B3320008D9860008B332000881
:10312000B3320008B3320008B3320008B3320008EB
:10313000DFF80CD000F0B8FF00480047ADE300080E
:10314000E053002080F309887047EFF3098070474F
:10315000684680F3098804480078C00714BF02203D
:10316000032080F314887047040F0108DFF818C0AB
:10317000EFF305831B0618BF6047EFF31483DB07EB
:1031800008BF604700DF70471DEF0008DFF818C078
:10319000EFF305831B0618BF6047EFF31483DB07CB
:1031A00008BF604700DF704799F10008EFF309801E
:1031B000816911F8021C39BB90E80F10E047EFF36A
:1031C000098C194B93E80600914218D059B10CB400
:1031D0004FF0010381F826302CE9F00FC1F82CC024
:1031E0000CF07EFA0CBC1A60D2F82CC0BCE8F00FD0
:1031F00092F826308CF309881BB192F82500CCF8A0
:1032000000006FF0020E704710B5084A1268914234
:1032100009D8074C54F8214090E80F10A047EFF36D
:10322000098C8CE80F0010BD740300208444000852
:10323000844400080CF0BEF8114B93E8060091425C
:103240001BD00CB44FF0000381F82630EFF3098C4B
:103250002CE9F00FC1F82CC00CF042FA0CBC1A603B
:10326000D2F82CC0BCE8F00F8CF3098892F8263015
:103270001BB192F82530CCF800306FF0020E704789
:10328000740300200CF00EFBD6E700000BF090FB5F
:103290000CF008FBD0E700000648804706480047CE
:1032A000FEE7FEE7FEE7FEE7FEE7FEE7FEE7FEE7F6
:1032B000FEE7FEE7C18300083131000840EA010360
:1032C0009B0703D009E008C9121F08C0042AFAD2DC
:1032D00003E011F8013B00F8013B521EF9D27047A0
:1032E000D2B201E000F8012B491EFBD27047002248
:1032F000F6E710B513460A4604461946FFF7F0FFF5
:10330000204610BD30B505462A460B4612F8010B83
:1033100013F8014B08B1A042F8D01CB1002802D02C
:103320006D1CF1E7284630BD421C10F8011B002936
:10333000FBD1801A704730B504460020034600E0F8
:103340005B1C934203D2E05CCD5C401BF8D030BDE7
:103350000FB400B58DB010A909900B9000914FF0FB
:10336000FF300A9000200C90054806900548079011
:103370006A4609A80F9900F0B1FD0DB05DF814FB85
:10338000F93E0008173F00082DE9FF5F1D464FF08A
:10339000FF3BD5E9014691465F464FF00008A96919
:1033A0007F1C01988847296A824688470028F6D101
:1033B000BAF1FF3F0CD024F4C064002E19DD600682
:1033C00014D5BAF12B0F09D0BAF12D0F0ED103E0AD
:1033D000584604B0BDE8F09F44F48064A9697F1C9E
:1033E00001988847761E8246002E02DDBAF1300F22
:1033F00003D0B9F1000F26D032E0A969761E44F45B
:1034000000747F1C019888478246002E05DDBAF1C2
:10341000780F06D0BAF1580F03D0B9F1000F10D0D1
:103420001EE0B9F1000F02D0B9F1100F18D1A9694F
:10343000761E24F400747F1C019888478246102071
:1034400002E0082000E00A20814609E008FB0908A4
:10345000A969761E44F400747F1C0198884782464F
:10346000002E05DD4946504600F024FD0028EDDA27
:10347000E96901988847A00502D46FF00100A8E728
:10348000E00725D1600613D5600502D5C8F100001C
:1034900000E0404629680A1D2A600968220501D516
:1034A000087015E0220701D5088011E008600FE0E0
:1034B0002868011D29600068210502D580F8008078
:1034C00006E0210702D5A0F8008001E0C0F80080E6
:1034D00038467EE72DE9FF4F087881B09946FF28EE
:1034E00005D0491C2D2804D00024002308E0002327
:1034F0000BE00124F9E703EB830300EB4303491CD2
:103500000878FF28F7D104B15B42002000901478BE
:1035100001462D2C01D02B2C04D1521C2D2C12D065
:103520000024009400251678FF2E0ED00A24A0FB5C
:1035300004C801FB0481002700FB0711521C16EB95
:103540000C006941EFE70124EBE7994450EA0102DE
:103550000ED00024AA4D2646DFF8A88200F080FD98
:1035600082468B46B9F1000009DAC9F100071BE079
:1035700001980021C0E9001105B0BDE8F08F0746B1
:1035800012E0F80707D022462B463046414600F0AD
:10359000ACFA0646884622462B461046194600F0ED
:1035A000A4FA04460D467F10002FEAD1B9F1000FAE
:1035B000324643465046594602DA00F008FB01E025
:1035C00000F093FA009A0AB181F00041019AC2E931
:1035D0000001D1E72DE9FF4F1F468DB0D7E9014625
:1035E0004FF0FF382E2045464FF000090B90B96987
:1035F0006D1C0E988847396A824688470028F6D1A4
:10360000BAF1FF3F0AD024F4D064002E11DDBAF1E4
:103610002B0F08D0BAF12D0F0BD102E0404611B0AC
:10362000ABE744F48064B9696D1C0E988847824604
:10363000761E6946600501D52D2000E02B208DF80F
:10364000000001F1010B0DF1200809E0B9696D1CC2
:103650000E98884782460F9844F40074761E0560E1
:10366000002E02DDBAF1300FF0D00B998A453ED121
:1036700044F0800406E00F99681CA9F1010944F4A4
:1036800000740860B9696D1C761E0E9888478246E2
:103690003028F0D02BE00B998A4505D1200603D4C1
:1036A00044F08004761E18E0504607F093FB08B300
:1036B0000DF11301761E44F400748B4508D2AAF173
:1036C00030000BF8010B200607D5A9F1010003E03B
:1036D000200602D409F101008146A00502D50F9908
:1036E000681C0860B9696D1C0E9888478246002ED8
:1036F000D1DC53E0002E51DDBAF1650F02D0BAF1F2
:10370000450F4BD1A00549D5B9696D1C24F440740F
:10371000761E0E9888478246002E0CDD2B2804D09A
:10372000BAF12D0F07D144F48074B9696D1C0E985D
:1037300088478246761EE00501D52D2100E02B2129
:1037400008F8011BCDF82C8021E00DF12901761E2F
:1037500044F4007488450CD2AAF1300010F0FF0048
:1037600088F8000002D10B99884509D908F10108B1
:1037700006E0E00501D5244801E042F20F708146E1
:10378000B9696D1C0E98884782460F980560002E17
:1037900004DD504607F01EFB0028D6D1F9690E98CB
:1037A0008847FF208BF8000088F800000020069072
:1037B00007904B466A4608A906A8FFF78BFEA005AE
:1037C00002D46FF001002AE714F0240F0AD0E007BA
:1037D00014D1DDE906123868031D3B600068C0E9BA
:1037E00000120BE0DDE9060100F0BCFA0146E0073B
:1037F00004D13868021D3A600068016028460EE76F
:10380000000024400000F03FF1D8FFFFF0B480EA50
:103810000102D40F4200B2EB410F02D20246084629
:1038200011464A0042D0C30DDDB2C1F3C752AD1AF2
:10383000202D35DAC1F3160141F4000204B15242E1
:10384000C5F1200602FA06F12A411044B3EBD05F1D
:1038500023D0C4B1012DA0EBC35009DCF0BC4FF064
:10386000004202EAC352DBB200F5000000F06DBB7B
:10387000400000F1807000EBC350A0F1807040EA7E
:10388000D170490009E0490841EAC071A0EBC3507A
:1038900000F50000400800EBC350F0BC00F04CBB4A
:1038A0006142012202EB4101001BF6E7F0BC7047C8
:1038B00081F00041AAE780F00040A7E780EA01021A
:1038C00010B502F00043400022D04A001FD0010E84
:1038D00001EB1261C0F35600C2F3560240F400003F
:1038E00042F40002A0FB022000047F39140400D03F
:1038F000401C50EA124001D44000491EC2B20C06DE
:1039000004EBD010401C4008802A02D003E00020C5
:1039100010BD20F00100002900DA0020184310BD7E
:1039200030B480EA010202F0004530F0004221F09C
:10393000004013D090B1C30DD40DC2F31601C0F3F3
:103940001600E41A41F4000140F400027D34914273
:1039500001D3641C00E04900002C02DA30BC0020D6
:1039600070474FF400000023914201D3891A0343AA
:1039700040084FEA4101F7D151B1914202D14FF0D5
:10398000004105E002D24FF0010101E06FF00101BA
:1039900003EBC450284430BC00F0CEBA2DE9FE4FF2
:1039A000804681EA0300C00F0C46009021F00041E0
:1039B00023F00045B8EB0200A94105D2404621465C
:1039C00090461C460B46024623F00040104347D069
:1039D000270DC7F30A00C3F30A510290401A019061
:1039E00040286BDAC3F3130040F4801B0098924622
:1039F00020B10023D2EB030A63EB0B0B019859466D
:103A0000C0F14002504600F024FA06460D465046EA
:103A10005946019A00F03CFA10EB0800614100247D
:103A200087EA115284EAE7731A4340D0009A62B3DE
:103A3000019A012A4FEA075215DC001B61EB0201D3
:103A40004FF0004202EA0752CDE90042001C41F566
:103A5000801132462B4600F0B5FA03B0BDE8F08F76
:103A600040462146F9E7001B61EB0201001C41F5CD
:103A7000801300185B412018A2F5001747EB0301E3
:103A800040EAD570B6196D4111E06D084FEA36066F
:103A900045EAC0754FEA0752001B61EB0201001CAA
:103AA00041F5801149084FEA300000195141324672
:103AB0002B4603B0BDE8F04F00F075BA0098012224
:103AC00040000023D0EB020263EBE0730098214634
:103AD0004FEAE074B8EB000061EB0401E9E783F022
:103AE00000435BE781F0004158E72DE9FE4F81EA92
:103AF000030404F0004421F0004100944FF0000B57
:103B000023F0004350EA01045ED052EA03045BD084
:103B1000C3F30A54C1F30A552C44A4F2F3340194BC
:103B2000A0FB0254C1F3130141F48011C3F313034A
:103B300043F4801301FB024400FB034E840A970AFE
:103B400044EA815447EA8357A4FB076802958D0A2B
:103B500005FB07854FEA932C04FB0C542705029DB7
:103B60004FEA065847EA1637B5EB08056EEB070C27
:103B7000870E920E47EA811742EA8312A7FB0201E1
:103B8000B6EB0B0164EB00042B0D43EA0C335E181B
:103B900044EB1C50DA465146E7FB0201C5F313041F
:103BA0004FEA0B3343EA14534FEA0432019C43EAD1
:103BB0000603A4F10C040294009CCDE900B400F0CB
:103BC00001FA03B0BDE8F08F00200146F9E72DE9C6
:103BD000F04D81EA030404F0004B21F00045144647
:103BE0004FF0000A23F0004150EA050220D054EAC9
:103BF00001021DD0C5F30A570246C5F31303C1F3F2
:103C00001300C1F30A5640F4801543F48013A7EB68
:103C10000608101BD64608F2FD3873EB050002D3E8
:103C200008F1010801E092185B41B8F1000F03DAD6
:103C300000200146BDE8F08D00204FF480110646BB
:103C400084460EE0171B73EB050705D3121B63EBCD
:103C5000050306434CEA010C49084FEA300092186C
:103C60005B4150EA0107EDD152EA030012D082EA2B
:103C7000040083EA0501084305D0101BAB4106D2BE
:103C80000122002306E000224FF0004302E06FF023
:103C9000010253101AEB06004CEB085110EB0A001E
:103CA00041EB0B01BDE8F04D00F07DB996230022F9
:103CB000114600F04AB920F00040C10DC0F31600D3
:103CC00040F400007F2901DA00207047962903DCC8
:103CD000C1F19601C840704796398840704700F09E
:103CE000004230F000400AD0C10D01F56071C0F310
:103CF000160042EA0151C2084007114370470020F4
:103D00000146704730B5041E71F1000404DB4FF02A
:103D10000044404264EB0101141E73F1000405DB12
:103D20001C464FF00043524263EB04038B4208BF32
:103D3000824230BD30B5041E71F1000404DB4FF047
:103D40000044404264EB0101141E73F1000405DBE2
:103D50001C464FF00043524263EB0403994208BFF4
:103D6000904230BD01F0004330B421F0004150EAF0
:103D7000010206D00A0DA2F56072C1F31301002AF8
:103D800002DC30BC00207047440F44EAC104C1008B
:103D9000E01830BC00EBC25000F0CEB8002801DBC8
:103DA000C0F10040002901DBC1F1004181427047B0
:103DB000002801DBC0F10040002901DBC1F1004116
:103DC0008842704730B50B4601460020202201246E
:103DD00009E021FA02F59D4205D303FA02F5491BD9
:103DE00004FA02F52844151EA2F10102F1DC30BDEF
:103DF0002DE9F05F0546002092469B468846064620
:103E0000814640241BE0284641464746224600F0B2
:103E10002FF853465A46C01A914110D311461846FE
:103E2000224600F016F82D1A67EB01084F4622468D
:103E30000120002100F00DF817EB00094E41201E73
:103E4000A4F10104DFDC484631462A464346BDE87A
:103E5000F09F202A04DB203A00FA02F1002070478C
:103E60009140C2F1200320FA03F3194390407047B8
:103E7000202A04DB203A21FA02F00021704721FABF
:103E800002F3D040C2F12002914008431946704726
:103E9000202A06DBCB17203A41FA02F043EAE0730E
:103EA00006E041FA02F3D040C2F1200291400843FB
:103EB000194670473A2800D2303820F02002412AB3
:103EC00001D3A2F13700884201D34FF0FF30704791
:103ED000026811441378016018467047D1600449A4
:103EE00051610449116200211161114600F0F4B8DA
:103EF000D13E0008CD400008426842B1016811F887
:103F0000013B23B1521EC0E900121846704701213F
:103F1000C160881E704742685AB1C368016843B9DE
:103F200083688B4205D0491E521CC0E90012002054
:103F300070474FF0FF3070470029A8BF7047401C02
:103F4000490008BF20F00100704710B4B0FA80FCAF
:103F500000FA0CF050EA010404BF10BC704749B1EC
:103F6000CCF1200421FA04F411FA0CF118BF01215C
:103F700021430843A3EB0C01CB1D4FEA00614FEA3C
:103F8000102042BF002010BC704700EBC35010440B
:103F90000029A4BF10BC7047401C490008BF20F096
:103FA000010010BC704710B5141E73F1000408DA4C
:103FB000401C41F1000192185B411A4301D120F0ED
:103FC000010010BD2DE9F04D92469B4611B1B1FAAA
:103FD00081F202E0B0FA80F220329046FFF739FF1A
:103FE00004460F4640EA0A0041EA0B0153465A468E
:103FF000084313D0114653EA010019D0C8F140021A
:104000005046FFF735FF05460E4650465946424694
:10401000FFF71FFF084305D0012004E02046394682
:10402000BDE8F08D0020054346EAE0762C43374397
:104030000A986305E40AA0EB08000022FD0A44EA9E
:1040400047540A3002D500200146E9E7010510195E
:104050006941DDE9084500196941BDE8F04DA2E775
:104060000EB540F2334202920022CDE900221346FF
:10407000FFF7A8FF03B000BDC1F30A52C1F313015B
:1040800040F2FF3341F480119A4202DA00200146E7
:10409000704740F233439A42A2F2334202DC52426A
:1040A000FFF7E6BEFFF7D5BE064C074D06E0E06819
:1040B00040F0010394E8070098471034AC42F6D36F
:1040C000FFF73AF85411010874110108C0B24FF417
:1040D000F05100F097B900002DE9F34F8BB04FF08D
:1040E000000801F10C000C464FF0010B46460DF1A3
:1040F000080A01906269012101989047051E2DD0A0
:10410000252D2CD0216A8847C0B162690121019810
:104110009047216A88470028F7D1411E62690198BB
:10412000904700E0761CA1690B988847216A884770
:104130000028F7D1E1690B988847DBE7A1690B9864
:1041400088470746A84201D1761CD3E7E1690B985E
:1041500088477F1C02D1B8F1000F6FD046E10027DD
:1041600062693D463946019890472A2804D1626920
:104170000121019890470125DFF8849262690121AD
:1041800001989047A0F130010A290AD24F45E5DC99
:1041900007EB870100EB4107303FDFD445F0100506
:1041A000ECE7E90601D46FF000476C280AD04C28F0
:1041B00014D0682815D06A280DD074281CD07A280D
:1041C0001AD01DE062690121019890476C2802D045
:1041D00045F0040514E045F002050DE045F020052A
:1041E0000AE06269012101989047682802D045F0F1
:1041F000080505E045F400656269012101989047D2
:10420000C4E9015765283DD019DC58287AD00CDC68
:10421000452837D004DC252826D0412831D131E08B
:1042200046282FD047282CD12CE05B2877D0612856
:1042300028D063287CD0642823D15AE0D0E06F28AE
:1042400048D008DC66281DD067281BD0692821D0FB
:104250006E2816D127E0702845D0732868D07528BD
:1042600047D078280DD14DE0A1690B9888470546C5
:1042700025283FF469AFE1690B9888476D1C3FF42E
:104280006AAFB3E023466A466FF001000B99FFF76F
:10429000A1F99EE045F040006060A80723464FF07A
:1042A000000236D43EE0E8077FF447AF2068011DE6
:1042B00021600068290501D506701BE7290701D593
:1042C000068017E7A90703D5F117C0E9006111E7D8
:1042D00006600FE745F040006060A80723464FF0F6
:1042E000080216D41EE040F60E0125EA01006060C7
:1042F00016E045F040006060A80723464FF00A0230
:1043000007D40FE045F040006060A80708D52346B9
:1043100010226FF001000B99AFF3008059E007E025
:10432000234610226FF001000B99FFF72DF850E0A3
:104330004FF000094F464B46632802D05B2806D059
:1043400040E0E80601D40120A06001273AE062695C
:104350000121019890475E2805D14FF0010962695B
:10436000494601989047216939B900210A465346C8
:1043700043F82120491C0829FADBB0B3216969B947
:10438000C11700EBD16253110AEB830122F01F0227
:10439000821A01200B68904003430B60626901217F
:1043A000019890475D28E8D1B9F1000F09D00020AD
:1043B000514651F82020D24341F82020401C0828C3
:1043C000F7DB02AB224600976FF001000B99AFF3C9
:1043D000008000280CDA401C08D1BBF1000F05D08A
:1043E0004FF0FF300DB0BDE8F08FFFE74046F9E732
:1043F000E90701D108F1010806444FF0000B79E606
:10440000CCCCCC0C7F2801D9002208E0064A02EB74
:104410005002C007127800D1120902F00F020120E9
:104420009040084070470000200F010870B58C18BC
:1044300010F8015B15F0070301D110F8013B2A11B8
:1044400006D110F8012B03E010F8016B01F8016BA5
:104450005B1EF9D12B0705D40023521E0DD401F8A1
:10446000013BFAE710F8013BCB1A921C03E013F86A
:10447000015B01F8015B521EF9D5A142D8D300209F
:1044800070BD00000000000070B504460D461148E4
:10449000844205D01048844202D01048844200D1A2
:1044A00004E04FF497710EA007F028FA0DB1012D2A
:1044B00000D104E040F22F1109A007F01FFA25B146
:1044C000A06840F00100A06003E0A06820F00100B7
:1044D000A06070BD0024014000280140003C014064
:1044E00053746D4C69625C53544D333246313078AD
:1044F0005F5374645065726970685F447269766571
:10450000725C7372635C73746D3332663130785FE2
:104510006164632E6300000070B504460D461048C8
:10452000844202D00F48844200D104E040F2471197
:104530000DA007F0E3F90DB1012D00D104E04FF417
:10454000A47109A007F0DAF925B1A06840F48070E1
:10455000A06003E0A06820F48070A06070BD00003F
:1045600000240140003C014053746D4C69625C536F
:10457000544D3332463130785F53746450657269FC
:1045800070685F4472697665725C7372635C7374A1
:104590006D3332663130785F6164632E63000000F2
:1045A00070B5044600250C48844205D00B4884426F
:1045B00002D00B48844200D104E04FF4D97109A025
:1045C00007F09CF9A06800F0040008B1012500E0A4
:1045D0000025284670BD000000240140002801404D
:1045E000003C014053746D4C69625C53544D33324E
:1045F000463130785F5374645065726970685F4407
:1046000072697665725C7372635C73746D33326663
:104610003130785F6164632E6300000070B504463A
:1046200000250C48844205D00B48844202D00B4838
:10463000844200D104E04FF4C67109A007F05EF98E
:10464000A06800F0080008B1012500E00025284618
:1046500070BD00000024014000280140003C0140E2
:1046600053746D4C69625C53544D3332463130782B
:104670005F5374645065726970685F4472697665EF
:10468000725C7372635C73746D3332663130785F61
:104690006164632E630000002DE9F04105460C467D
:1046A000002600275D48854205D05D48854202D03E
:1046B0005C48854200D103E0DF215BA007F01EF9D2
:1046C000206818B32068B0F5803F1FD02068B0F58F
:1046D000003F1BD02068B0F5403F17D02068B0F5F0
:1046E000802F13D02068B0F5A02F0FD02068B0F530
:1046F000C02F0BD02068B0F5E02F07D02068B0F5B0
:10470000002F03D02068B0F5102F00D103E0E02186
:1047100045A007F0F3F8207910B12079012800D1E5
:1047200003E0E12140A007F0E9F8607910B1607979
:10473000012800D103E0E2213BA007F0DFF8A068E8
:1047400088B3A068B0F5003F2DD0A068B0F5802FE9
:1047500029D0A068B0F5C02F25D0A068B0F5002FF3
:1047600021D0A068B0F5202F1DD0A068B0F5402F53
:1047700019D0A068B0F5602F15D0A06898B1A068D6
:10478000B0F5003F0FD0A068B0F5C02F0BD0A068E7
:10479000B0F5002F07D0A068B0F5202F03D0A06897
:1047A000B0F5402F00D103E0E3211FA007F0A6F8E9
:1047B000E06818B1E068B0F5006F00D103E0E421D3
:1047C00019A007F09BF8207C012803DB207C10282F
:1047D00000DC03E0E52114A007F090F86E682048A3
:1047E00006402179206840EA012006436E60AE68E9
:1047F0001C480640D4E902100843617940EA4100B0
:104800000643AE60EE6A26F47006207C401EC0B2FD
:10481000074346EA0756EE62BDE8F08100240140F6
:1048200000280140003C014053746D4C69625C53A8
:10483000544D3332463130785F5374645065726939
:1048400070685F4472697665725C7372635C7374DE
:104850006D3332663130785F6164632E630000002F
:10486000FFFEF0FFFDF7F1FF2DE9F04706460C468D
:10487000174698460025A9466048864205D06048FC
:10488000864202D05F48864200D104E040F25221C5
:104890005DA007F033F80CB3012C1FD0022C1DD003
:1048A000032C1BD0042C19D0052C17D0062C15D0A6
:1048B000072C13D0082C11D0092C0FD00A2C0DD0A6
:1048C0000B2C0BD00C2C09D00D2C07D00E2C05D0A6
:1048D0000F2C03D0102C01D0112C00D104E040F299
:1048E000532149A007F00AF8012F02DB102F00DC4A
:1048F00004E04FF4157144A007F000F8B8F1000F80
:1049000014D0B8F1010F11D0B8F1020F0ED0B8F1E8
:10491000030F0BD0B8F1040F08D0B8F1050F05D084
:10492000B8F1060F02D0B8F1070F00D104E040F251
:10493000552135A006F0E2FF092C13DDF568A4F13E
:104940000A0000EB4001072000FA01F925EA0905F9
:10495000A4F10A0000EB400008FA00F945EA090555
:10496000F5600EE0356904EB4401072000FA01F917
:1049700025EA090504EB440008FA00F945EA0905AF
:104980003561072F11DA756B781E00EB80011F204F
:1049900000FA01F925EA0905781E00EB800004FA07
:1049A00000F945EA0905756326E00D2F11DA356B2C
:1049B000F81F00EB80011F2000FA01F925EA090524
:1049C000F81F00EB800004FA00F945EA0905356399
:1049D00012E0F56AA7F10D0000EB80011F2000FA3C
:1049E00001F925EA0905A7F10D0000EB800004FAA2
:1049F00000F945EA0905F562BDE8F08700240140A9
:104A000000280140003C014053746D4C69625C53C6
:104A1000544D3332463130785F5374645065726957
:104A200070685F4472697665725C7372635C7374FC
:104A30006D3332663130785F6164632E630000004D
:104A400010B504460948844205D00948844202D082
:104A50000848844200D104E04FF4BF7106A006F07C
:104A60004DFFA06840F00800A06010BD0024014088
:104A700000280140003C014053746D4C69625C5356
:104A8000544D3332463130785F53746450657269E7
:104A900070685F4472697665725C7372635C73748C
:104AA0006D3332663130785F6164632E63000000DD
:104AB00070B504460D461148844205D01048844222
:104AC00002D01048844200D104E04FF4E6710EA0F9
:104AD00006F014FF0DB1012D00D104E040F2CD111C
:104AE00009A006F00BFF25B1A06840F4A000A0606B
:104AF00003E0A06820F4A000A06070BD0024014085
:104B000000280140003C014053746D4C69625C53C5
:104B1000544D3332463130785F5374645065726956
:104B200070685F4472697665725C7372635C7374FB
:104B30006D3332663130785F6164632E630000004C
:104B400010B504460948844205D00948844202D081
:104B50000848844200D104E04FF4D27106A006F068
:104B6000CDFEA06840F00400A06010BD002401400C
:104B700000280140003C014053746D4C69625C5355
:104B8000544D3332463130785F53746450657269E6
:104B900070685F4472697665725C7372635C73748B
:104BA0006D3332663130785F6164632E63000000DC
:104BB00010B504460CB1012C00D104E040F2924142
:104BC00008A006F09BFE34B11448006840F40000D1
:104BD0001249086005E01148006820F400000F4900
:104BE000086010BD53746D4C69625C53544D333290
:104BF000463130785F5374645065726970685F4401
:104C000072697665725C7372635C73746D3332665D
:104C10003130785F6164632E630000000824014036
:104C200008B5504800685049884265D14D4890F811
:104C30002800AA2846D14D480078002842D10120FA
:104C40004A490870474890F82A1090F8290001EB6B
:104C50000020464948800846408842F21071884248
:104C600001DD084601E04148408840494880084647
:104C70004088642801DA642001E03C4840883B49D0
:104C80004880084640880A2190FBF1F03749488067
:104C90001021374802F0BAFA2021354802F062FAB2
:104CA0003448006848B902203223304A3249009023
:104CB00032A00BF04BF82F4908602E4800680BF02B
:104CC000B3F819E0274890F82800AA2814D02748FC
:104CD0000078012810D1274800680BF0B5F80020B3
:104CE00022490870488008711021214802F03AFAE0
:104CF00020211F4802F036FA1A48006B22498842E8
:104D00002ED10822214917483430FEF714FB20B376
:104D10001E49091F1348826B406BC1E90102012043
:104D20001B4908700F4890F83B0048710D4890F8F7
:104D3000360008710B4890F83400BB2809D10846AA
:104D4000407830B9074890F83500C87001204870A5
:104D500006E000200E49487002E000200C4908706F
:104D600008BD0000880B00203580FF1836030020A6
:104D7000001801400800002041B900086265657014
:104D80005F73746172740000A4FFFF1F340C002075
:104D90001000002070B505468148807840F0FE0084
:104DA0007F49C97AFD2242EA410108407C49097DD8
:104DB000FB2242EA810108407949497FF72242EA11
:104DC000C1010840764991F82610EF2242EA01110C
:104DD0000840734991F82F10DF2242EA4111084040
:104DE0006F4991F83810BF2242EA811108406C499E
:104DF00091F841107F2242EAC111084069490870C8
:104E0000674890F84A0000F0FD0040F0FC0064495B
:104E100091F87710FB2242EA81010840604991F83D
:104E20008010F72242EAC10108405D4991F88910DB
:104E3000EF2242EA01110840594991F89210DF220D
:104E400042EA41110840564991F89B10BF2242EABC
:104E500081110840524991F8A4107F2242EAC11101
:104E6000084050494870504806F0C0FF4D480021A6
:104E7000016041604D49D1F83600FEF71CFF4949F9
:104E800008704A49D1F83600FEF715FF000A454977
:104E900048704749D1F81300FEF70DFF414988706B
:104EA0004349D1F81300FEF706FF000A3D49C870D8
:104EB0003F49D1F82A00FEF7FEFE3A4908713C4905
:104EC000D1F82A00FEF7F7FE000A36494871374943
:104ED000D1F85500FEF7EFFE324988713349D1F819
:104EE0005500FEF7E8FE000A2E49C8712E48401C06
:104EF00006F07CFF2B480021016041602B49D1F86E
:104F00001700FEF7D8FE274908702849D1F8170086
:104F1000FEF7D1FE000A234948702348801C06F0A2
:104F200065FF20480021016041602249486822490C
:104F3000FEF7C4FC0646FEF7BEFE84B219490C70AB
:104F4000201248701B49C8691B49FEF7B7FC06468A
:104F5000FEF7B1FE84B213498C702012C870154957
:104F6000486B1549FEF7AAFC0646FEF7A4FE84B27C
:104F70000C490C71201248710E49C86CFEF79BFE5B
:104F800084B208498C712012C8710748C01C06F011
:104F90002DFF0448002101604160FFF741FE70BD14
:104FA000BF180020B80000203180FF18CA19002067
:104FB000271A00206A1900200000C84210B5444892
:104FC000007800B910BD42484079012825D141023E
:104FD000404802F0C7F8404A01210E2007F042F98C
:104FE0003B48407801280AD139490879FEF75EFE2E
:104FF000044622463949022009F0BAFB02E00220A9
:1050000007F0B4F8032310220121354808F0DAFB39
:105010000121334802F0A6F858E02D4840790228D3
:1050200026D110212B4802F09DF82B4A2D32012168
:10503000132007F017F92648407801280AD124499F
:105040000879FEF733FE044622462449012009F080
:105050008FFB02E0012007F089F8032310220221D0
:105060001F4808F0AFFB02211D4802F07BF82DE03D
:105070000323102201211A4808F0A4FB0323102265
:105080000221174808F09EFB032310220421144834
:1050900008F098FB032310220821114808F092FB26
:1050A00001210F4802F05EF802210D4802F05AF883
:1050B00004210B4802F056F80821094802F052F882
:1050C000012007F053F8022007F050F800BF79E7FD
:1050D00010000020000C014034190020000016448C
:1050E0000008014000BFFEE710B5044610488442A6
:1050F00002D01048844200D103E07D210EA006F0CA
:10510000FDFB0B48844209D10121480602F030FD25
:1051100000214FF0007002F02BFD08E0012188060D
:1051200002F026FD00214FF0806002F021FD10BD4D
:10513000006400400068004053746D4C69625C5329
:10514000544D3332463130785F5374645065726920
:1051500070685F4472697665725C7372635C7374C5
:105160006D3332663130785F63616E2E630000000C
:1051700070B504460025A07A0D2800DC04E04FF449
:10518000947157A006F0BAFBE07A10B1E07A0128DA
:1051900000D104E040F2291151A006F0AFFB207BC2
:1051A00010B1207B012800D104E04FF495714CA090
:1051B00006F0A4FB208910B12089012800D104E069
:1051C00040F22B1146A006F099FB607B10B1607B8A
:1051D000012800D104E04FF4967141A006F08EFB47
:1051E000A17A012000FA01F54B48006840F0010067
:1051F0004949086048481C300068A84346491C31AA
:105200000860207BC8B944480C300068A843424974
:105210000C3108606088E18840EA01413E48403036
:10522000A27A40F832102088A18840EA01413A4829
:105230004030A27A00EBC2004160207B012819D1E6
:1052400035480C300068284333490C3108606088C9
:10525000218840EA014130484030A27A40F83210BB
:10526000E088A18840EA01412B484030A27A00EB57
:10527000C2004160E07A38B92748001D0068A843A1
:105280002549091D086006E02348001D00682843E1
:105290002149091D0860208930B91F481430006871
:1052A000A8431D49143108602089012806D11A48F5
:1052B000143000682843184914310860607B0128C5
:1052C00006D115481C300068284313491C3108607A
:1052D0001148006820F001000F49086070BD00000F
:1052E00053746D4C69625C53544D3332463130789F
:1052F0005F5374645065726970685F447269766563
:10530000725C7372635C73746D3332663130785FD4
:1053100063616E2E630000000066004070B50546B4
:105320000C4616462348854202D02348854200D1C8
:1053300004E040F2F93121A006F0E0FA012C20D07F
:10534000022C1ED0042C1CD0082C1AD0102C18D0E3
:10535000202C16D0402C14D0B4F5807F11D0B4F599
:10536000007F0ED0B4F5806F0BD0B4F5006F08D07D
:10537000B4F5004F05D0B4F5803F02D0B4F5003F3E
:1053800000D104E040F2FA310CA006F0B7FA0EB1F9
:10539000012E00D104E040F2FB3108A006F0AEFA85
:1053A0001EB168692043686102E06869A0436861D2
:1053B00070BD0000006400400068004053746D4CF4
:1053C00069625C53544D3332463130785F537464B4
:1053D0005065726970685F4472697665725C737259
:1053E000635C73746D3332663130785F63616E2E47
:1053F000630000002DE9F04104460D460027002619
:105400008548844202D08548844200D103E09F2130
:1054100083A006F073FAA87910B1A879012800D109
:1054200003E0A0217EA006F069FAE87910B1E879DE
:10543000012800D103E0A12179A006F05FFA287AC3
:1054400010B1287A012800D103E0A22174A006F04F
:1054500055FA687A10B1687A012800D103E0A321D7
:105460006FA006F04BFAA87A10B1A87A012800D1F3
:1054700003E0A4216AA006F041FAE87A10B1E87AC4
:10548000012800D103E0A52165A006F037FAA8782D
:1054900040B1A878012805D0A878022802D0A878C1
:1054A000032800D103E0A6215DA006F027FAE878E2
:1054B00040B1E878012805D0E878022802D0E878E1
:1054C000032800D103E0A72155A006F017FA287998
:1054D0000F2800DC03E0A82151A006F00FFA68793C
:1054E000072800DC03E0A9214DA006F007FA288870
:1054F000012804DB2888B0F5806F00DC03E0AA21D6
:1055000047A006F0FBF9206820F002002060206828
:1055100040F00100206000E0761C606800F00100AF
:1055200018B94FF6FF708642F6D1606800F00100AE
:1055300008B900276CE0A879012804D1206840F060
:105540008000206003E0206820F080002060E8797F
:10555000012804D1206840F04000206003E020686A
:1055600020F040002060287A012804D1206840F013
:105570002000206003E0206820F020002060687A8E
:10558000012804D1206840F01000206003E020686A
:1055900020F010002060A87A012804D1206840F093
:1055A0000800206003E0206820F008002060E87A0E
:1055B000012804D1206840F00400206003E0206846
:1055C00020F004002060A8788007E97840EA0160B4
:1055D000297940EA0140697940EA01502988491E49
:1055E0000843E061206820F001002060002600E010
:1055F000761C606800F0010018B14FF6FF7086421B
:10560000F6D1606800F0010008B1002700E0012732
:105610003846BDE8F08100000064004000680040AA
:1056200053746D4C69625C53544D3332463130785B
:105630005F5374645065726970685F44726976651F
:10564000725C7372635C73746D3332663130785F91
:1056500063616E2E6300000070B504460D46164669
:105660004548844202D04548844200D104E040F2DB
:10567000AD2143A006F042F90DB1012D00D104E0A7
:1056800040F2AE213EA006F039F904F5D87000EBE7
:105690000510006800F004003072307A50B904F54B
:1056A000D87000EB0510006840F2FF7101EA50501D
:1056B000306009E004F5D87000EB051000686FF069
:1056C000604101EAD000706004F5D87000EB05106D
:1056D000006800F00200707204F5D87000EB05104D
:1056E000406800F00F00B07204F5D87000EB0510B0
:1056F0004068000AF07404F5D87000EB051080686B
:10570000F07204F5D87000EB05108068010A31735F
:1057100004F5D87000EB05108068010C717304F576
:10572000D87000EB05108068000EB07304F5D870D7
:1057300000EB0510C068F07304F5D87000EB05109D
:10574000C068010A317404F5D87000EB0510C06818
:10575000010C717404F5D87000EB0510C068000EE0
:10576000B07425B9E06840F02000E06003E02069F3
:1057700040F02000206170BD0064004000680040DF
:1057800053746D4C69625C53544D333246313078FA
:105790005F5374645065726970685F4472697665BE
:1057A000725C7372635C73746D3332663130785F30
:1057B00063616E2E6300000070B505460C4600263E
:1057C0006948854202D06948854200D104E040F230
:1057D000072167A006F092F8207A10B1207A0428F9
:1057E00000D104E04FF4027161A006F087F8607AFE
:1057F00010B1607A022800D104E040F209215CA0D7
:1058000006F07CF8A07A082800DC04E040F20A21C7
:1058100057A006F073F8A86800F08060B0F1806FC0
:1058200001D1002610E0A86800F00060B0F1006F20
:1058300001D1012608E0A86800F08050B0F1805F37
:1058400001D1022600E00426042E7DD005F5C070AB
:1058500000EB0610006800F0010105F5C07000EBD8
:1058600006100160207AC8B92068B0F5006F00D238
:1058700004E04FF409713EA006F040F8607A2188F8
:1058800040EA415005F5C07101EB06110968084373
:1058900005F5C07101EB061108601AE06068B0F10F
:1058A000005F00D204E040F22A2131A006F026F881
:1058B000207A616840EAC100617A084305F5C07149
:1058C00001EB06110968084305F5C07101EB0611EB
:1058D0000860A07A00F00F00A07205F5C07000EB20
:1058E0000610406820F00F0105F5C07000EB0610AF
:1058F000416005F5C07000EB06104068A17A0843CE
:1059000005F5C07101EB06114860A07B0106607BC4
:1059100041EA0041207B41EA0020E17A084305F595
:10592000C07101EB06118860A07C0106607C41EA31
:105930000041207C41EA0020E17B084305F5C0716D
:1059400001EB0611C86000E00BE005F5C07000EB4C
:105950000610006840F0010105F5C07000EB06106C
:105960000160304670BD00000064004000680040E7
:1059700053746D4C69625C53544D33324631307808
:105980005F5374645065726970685F4472697665CC
:10599000725C7372635C73746D3332663130785F3E
:1059A00063616E2E6300000070B504460D460CB1B5
:1059B000102C00D103E0B0210DA005F09FFF0DB128
:1059C000012D00D103E0B12109A005F097FF3DB101
:1059D000154800680121A14008431349086006E00A
:1059E000114800680121A14088430F49086070BD3B
:1059F00053746D4C69625C53544D33324631307888
:105A00005F5374645065726970685F44726976654B
:105A1000725C7372635C73746D3332663130785FBD
:105A20006461632E630000000074004038B50446D2
:105A3000002000900CB1102C00D104E040F2B31112
:105A400007A005F05BFF144800902C2000EB9400A9
:105A50000099084400900098006880B238BD0000AA
:105A600053746D4C69625C53544D33324631307817
:105A70005F5374645065726970685F4472697665DB
:105A8000725C7372635C73746D3332663130785F4D
:105A90006461632E63000000007400402DE9F04152
:105AA00005460C46002600272068B8B12068042867
:105AB00014D020680C2811D0206814280ED020683B
:105AC0001C280BD02068242808D020682C2805D05A
:105AD0002068342802D020683C2800D103E07921D6
:105AE00048A005F00BFF606828B16068402802D02C
:105AF0006068802800D103E07A2142A005F0FEFE14
:105B0000A068E8B3A068B0F5807F57D0A068B0F572
:105B1000007F53D0A068B0F5407F4FD0A068B0F5AB
:105B2000806F4BD0A068B0F5A06F47D0A068B0F5EB
:105B3000C06F43D0A068B0F5E06F3FD0A068B0F56B
:105B4000006F3BD0A068B0F5106F37D0A068B0F5FB
:105B5000206F33D0A068B0F5306F2FD0A06878B137
:105B6000A068B0F5807F29D0A068B0F5007F25D06F
:105B7000A068B0F5407F21D0A068B0F5806F00E04C
:105B80001CE01BD0A068B0F5A06F17D0A068B0F5DE
:105B9000C06F13D0A068B0F5E06F0FD0A068B0F56B
:105BA000006F0BD0A068B0F5106F07D0A068B0F5FB
:105BB000206F03D0A068B0F5306F00D103E07B21E7
:105BC00010A005F09BFEE06810B1E068022800D14B
:105BD00003E07C210BA005F091FE1848066840F612
:105BE000FE70A8408643D4E900010843A168084339
:105BF000E16840EA010707FA05F006430F4806602E
:105C0000BDE8F08153746D4C69625C53544D33327E
:105C1000463130785F5374645065726970685F44D0
:105C200072697665725C7372635C73746D3332662D
:105C30003130785F6461632E6300000000740040BF
:105C400038B504460D46002000901CB1042C01D04C
:105C5000082C00D104E040F25B110BA005F04EFED1
:105C60004FF6F070854200DC04E04FF4AE7106A000
:105C700005F044FE1248009004F108000099084421
:105C800000900098056038BD53746D4C69625C5398
:105C9000544D3332463130785F53746450657269C5
:105CA00070685F4472697665725C7372635C73746A
:105CB0006D3332663130785F6461632E63000000BB
:105CC0000074004038B504460D46002000901CB119
:105CD000042C01D0082C00D104E04FF4BA710BA0C1
:105CE00005F00CFE4FF6F070854200DC04E040F257
:105CF000751106A005F002FE1248009004F1140090
:105D00000099084400900098056038BD53746D4CAC
:105D100069625C53544D3332463130785F5374645A
:105D20005065726970685F4472697665725C7372FF
:105D3000635C73746D3332663130785F6461632EF7
:105D4000630000000074004010B5022000F004FA67
:105D5000012855D1022000F061F82A4801882A481C
:105D60002A4A127820F812102648418826481E3008
:105D7000264A127820F812102248818822483C30A6
:105D8000224A127820F812101E48C1881E485A3044
:105D90001E4A127820F812101A4801891A487830E1
:105DA0001A4A127820F8121016484189164896307F
:105DB000164A127820F81210124881891248B4301D
:105DC000124A127820F81210104800780E2806DACD
:105DD0000E480078401CC0B20C49087000E000205A
:105DE0000A4908700A4800780E2806DA0848007840
:105DF000401CC0B20649087000E00E20044908703B
:105E000010BD0000802000208E200020A80100206E
:105E100050010020704770477047704710B5044626
:105E200004F0704010B10948204008B904B104E002
:105E300040F2AF2106A005F061FD04F0805010B1E2
:105E40001148046001E01148446010BD0000F0EF0B
:105E500053746D4C69625C53544D33324631307823
:105E60005F5374645065726970685F4472697665E7
:105E7000725C7372635C73746D3332663130785F59
:105E8000646D612E630000000404024000000240C3
:105E900070B504460D46244884422AD02248143066
:105EA000844226D020482830844222D01E483C30EC
:105EB00084421ED01C48503084421AD01A486430A4
:105EC000844216D018487830844212D01748844251
:105ED0000FD01648143084420BD014482830844226
:105EE00007D012483C30844203D0104850308442DE
:105EF00000D104E040F229110DA005F0FFFC0DB126
:105F0000012D00D104E04FF4957109A005F0F6FCD5
:105F100025B1206840F00100206004E020684FF6C1
:105F2000FE710840206070BD080002400804024075
:105F300053746D4C69625C53544D33324631307842
:105F40005F5374645065726970685F447269766506
:105F5000725C7372635C73746D3332663130785F78
:105F6000646D612E6300000010B504466A488442E7
:105F70002AD069481430844226D0674828308442A9
:105F800022D065483C3084421ED063485030844261
:105F90001AD061486430844216D05F487830844219
:105FA00012D05E4884420FD05C48143084420BD03B
:105FB0005A482830844207D058483C30844203D0A5
:105FC00056485030844200D103E06F2154A005F0C0
:105FD00095FC20684FF6FE7108402060002020608C
:105FE0006060A060E0604C48844208D14A480838AC
:105FF000406840F00F004849083948608AE0464848
:106000001430844208D144480838406840F0F00019
:106010004149083948607DE03F482830844208D132
:106020003D480838406840F470603B490839486092
:1060300070E039483C30844208D13748083840681D
:1060400040F4704034490839486063E032485030C9
:10605000844208D130480838406840F470202E4906
:106060000839486056E02C486430844208D12A48F8
:106070000838406840F4700027490839486049E012
:1060800025487830844208D123480838406840F0D9
:1060900070602149083948603CE02048844206D1BC
:1060A000001F006840F00F00211F086032E01B480D
:1060B0001430844208D11948001F006840F0F000F5
:1060C0001649091F086025E014482830844208D189
:1060D0001248001F006840F470601049091F0860F2
:1060E00018E00E483C30844208D10C48001F00687C
:1060F00040F470400949091F08600BE00748503020
:10610000844207D10548001F006840F4702003490D
:10611000091F086010BD000008000240080402408A
:1061200053746D4C69625C53544D33324631307850
:106130005F5374645065726970685F447269766514
:10614000725C7372635C73746D3332663130785F86
:10615000646D612E6300000070B5044600250026C2
:10616000012C7DD0022C7BD0042C79D0082C77D048
:10617000102C75D0202C73D0402C71D0802C7FD067
:10618000B4F5807F7CD0B4F5007F79D0B4F5806F12
:1061900076D0B4F5006F73D0B4F5805F70D0B4F5ED
:1061A000005F6DD0B4F5804F6AD0B4F5004F67D072
:1061B000B4F5803F64D0B4F5003F61D0B4F5802FD2
:1061C0005ED0B4F5002F5BD0B4F5801F58D0B4F585
:1061D000001F55D0B4F5800F52D0B4F5000F4FD04A
:1061E000B4F1807F4CD0B4F1007F49D0B4F1806F1E
:1061F00046D0B4F1006F43D02C48844240D0401CBC
:1062000084423DD0801C84423AD0001D844237D065
:1062100026480F30844233D024481F3084422FD088
:1062200022483F3084422BD020487F30844227D000
:106230001E48FF30844223D01D48844220D01D4890
:1062400084421DD01C4884421AD0B4F1102F17D0BC
:106250004FEAF030844213D01848844210D000E056
:106260000EE0174884420BD01648844208D01648E6
:10627000844205D01548844202D01548844200D19A
:1062800004E040F2592113A005F038FB04F08050DF
:1062900010B11E48066801E01D48066806EA0400C1
:1062A00008B1012500E00025284670BD010000105E
:1062B0000002001000040010000800100040001050
:1062C0000080001000000110000002100000041007
:1062D0000000081053746D4C69625C53544D3332A6
:1062E000463130785F5374645065726970685F44FA
:1062F00072697665725C7372635C73746D33326657
:106300003130785F646D612E63000000000402404C
:106310000000024070B504460D46164627488442E8
:106320002AD026481430844226D02448283084427B
:1063300022D022483C3084421ED020485030844233
:106340001AD01E486430844216D01C4878308442EB
:1063500012D01B4884420FD01948143084420BD00D
:1063600017482830844207D015483C30844203D077
:1063700013485030844200D104E040F2491111A08A
:1063800005F0BCFA25F00E0008B905B104E04FF4A1
:10639000A5710CA005F0B2FA0EB1012E00D104E0F7
:1063A00040F24B1107A005F0A9FA1EB1206828435E
:1063B000206002E02068A843206070BD0800024011
:1063C0000804024053746D4C69625C53544D33327F
:1063D000463130785F5374645065726970685F4409
:1063E00072697665725C7372635C73746D33326666
:1063F0003130785F646D612E6300000070B5054632
:106400000C4600265E4885422AD05D4814308542FD
:1064100026D05B482830854222D059483C308542FE
:106420001ED05748503085421AD0554864308542B6
:1064300016D053487830854212D0524885420FD04A
:106440005048143085420BD04E482830854207D042
:106450004C483C30854203D04A485030854200D1F8
:1064600003E0CF2148A005F049FAA068102801D028
:10647000A06800B903E0D02143A005F03FFAE0682E
:1064800020B1E068B0F5803F00D203E0D1213EA00A
:1064900005F034FA2069402801D0206900B903E0F2
:1064A000D22139A005F02AFA6069802801D06069FC
:1064B00000B903E0D32134A005F020FAA06938B177
:1064C000A069B0F5807F03D0A069B0F5007F00D14E
:1064D00003E0D4212CA005F011FAE06938B1E0699D
:1064E000B0F5806F03D0E069B0F5006F00D103E034
:1064F000D52125A005F002FA206A202801D0206AC3
:1065000000B903E0D62120A005F0F8F9606AB0F5E3
:10651000405F09D0606AB0F5005F05D0606AB0F5F1
:10652000805F01D0606A00B903E0D72116A005F0B2
:10653000E5F9A06AB0F5804F01D0A06A00B903E088
:10654000D82111A005F0DAF92E6847F6F0708643DD
:10655000216AA06808432169084361690843A16969
:106560000843E1690843616A0843A16A0843064396
:106570002E60E06868602068A8606068E86070BDB0
:10658000080002400804024053746D4C69625C5379
:10659000544D3332463130785F53746450657269BC
:1065A00070685F4472697665725C7372635C737461
:1065B0006D3332663130785F646D612E63000000A8
:1065C0007047704708B5002000903048006800F020
:1065D000400088B12D481438006800F0400058B1E0
:1065E00006F08CFC009000222948009907F0BEFCC0
:1065F00040202649086048E02448006800F08000F8
:1066000090B122481438006800F0800060B106F0B4
:1066100075FC009000221E482C30009907F0A6FC63
:1066200080201A49086030E01848006800F4807043
:1066300098B116481438006800F4807068B106F00C
:106640005DFC0090002212485830009907F08EFC43
:106650004FF480700D49086017E00C48006800F4A2
:10666000007090B109481438006800F4007060B1FF
:1066700006F044FC0090002205488430009907F0A1
:1066800075FC4FF400700149086008BD1404014016
:106690007402002010B50446200D000508B904B1AD
:1066A00003E0FC2102A005F029F90F48046010BDA9
:1066B00053746D4C69625C53544D333246313078BB
:1066C0005F5374645065726970685F44726976657F
:1066D000725C7372635C73746D3332663130785FF1
:1066E000657874692E6300001404014070B5044697
:1066F0000025207910B12079042800D103E06A2117
:1067000035A005F0FBF86079082805D060790C28E1
:1067100002D06079102800D103E06B212EA005F093
:10672000EDF820686FF3130010B9206800B103E0A2
:106730006C2129A005F0E2F8A07910B1A079012818
:1067400000D103E06D2124A005F0D8F8304DA079E8
:1067500090B3284600682168884329460860081DD0
:10676000006821688843291D08602079054428684D
:10677000216808432860264808300068216888435B
:10678000234908310860081D0068216888432049B2
:106790000C310860607910280FD1081F006821684B
:1067A00008431B4908310860081D00682168084338
:1067B00017490C3108600EE007E0154D607905447B
:1067C000286821680843286005E020790544286886
:1067D00021688843286070BD53746D4C69625C53B6
:1067E000544D3332463130785F537464506572696A
:1067F00070685F4472697665725C7372635C73740F
:106800006D3332663130785F657874692E630000CD
:106810000004014010B5044624F0350008B904B165
:1068200004E040F2B65103A005F068F80F48C460D8
:1068300010BD000053746D4C69625C53544D33328B
:10684000463130785F5374645065726970685F4494
:1068500072697665725C7372635C73746D333266F1
:106860003130785F666C6173682E630000200240EF
:1068700070B504460425B4F1006F03D31448844274
:1068800000D204E040F2A71112A005F037F84FF44F
:10689000302000F0CDF80546042D17D11B480069C3
:1068A00040F002001949086108464461006940F05F
:1068B000400008614FF4302000F0BAF80546134854
:1068C000006941F6FD71084010490861284670BD15
:1068D000FFFF0F0853746D4C69625C53544D3332A3
:1068E000463130785F5374645065726970685F44F4
:1068F00072697665725C7372635C73746D33326651
:106900003130785F666C6173682E6300002002404E
:1069100004200B49C96801F0010109B101200EE012
:106920000749C96801F0040109B1022007E00449E0
:10693000C96801F0100109B1032000E0042070478C
:10694000002002400348006940F0800001490861CE
:106950007047000000200240F8B504460D460426AA
:1069600000200090B4F1006F03D31B48844200D292
:1069700004E040F2AF2119A004F0C0FF4FF4005032
:1069800000F056F80646042E24D12248006940F053
:106990000100204908612580F00200F049F8064610
:1069A000042E10D1A01C0090280C00990880F00241
:1069B00000F03EF806461748006941F6FE710840AF
:1069C0001449086106E01348006941F6FE71084069
:1069D000104908613046F8BDFFFF0F0853746D4C35
:1069E00069625C53544D3332463130785F5374647E
:1069F0005065726970685F4472697665725C737223
:106A0000635C73746D3332663130785F666C6173CA
:106A1000682E630000200240024803494860034892
:106A2000486070472301674500200240AB89EFCDE5
:106A300000B502460423FFF76BFF034603E0FFF7B0
:106A400067FF0346521E012B01D1002AF7D102B97C
:106A50000523184600BD000070B505460C4600260B
:106A60005DB1012D09D0022D07D0032D05D0042DD5
:106A700003D0052D01D0062D00D104E040F26521A0
:106A800021A004F03BFFECB1012C1BD0022C19D04B
:106A9000032C17D0042C15D0052C13D0062C11D0A4
:106AA000072C0FD0082C0DD0092C0BD00A2C09D0A4
:106AB0000B2C07D00C2C05D00D2C03D00E2C01D0A4
:106AC0000F2C00D104E040F266210FA004F016FF65
:106AD000A007010F0F2000FA01F61948A11050F885
:106AE0002100B0431649A21041F822000846A11027
:106AF00050F82100A107090F05FA01F108431049D8
:106B0000A21041F8220070BD53746D4C69625C5351
:106B1000544D3332463130785F5374645065726936
:106B200070685F4472697665725C7372635C7374DB
:106B30006D3332663130785F6770696F2E630000A5
:106B4000080001402DE9F05F05460C464FF00009B2
:106B5000CA4600260027B046B3465948854211D0A0
:106B6000584885420ED0584885420BD05748854238
:106B700008D05748854205D05648854202D056482D
:106B8000854200D103E0B22154A004F0B7FEE078C2
:106B9000A0B1E078042811D0E07828280ED0E07861
:106BA00048280BD0E078142808D0E078102805D0C9
:106BB000E0781C2802D0E078182800D103E0B32147
:106BC00046A004F09BFE002010B9208800B103E02D
:106BD000B42142A004F092FEE07800F00F09E078C2
:106BE00000F0100080B1A078012805D0A07802281C
:106BF00002D0A078032800D103E0BB2137A004F025
:106C00007DFEA07840EA0909207838B3D5F80080E5
:106C100000261FE0012000FA06F7208800EA070A94
:106C2000BA4516D1B7000F2000FA07FB28EA0B0877
:106C300009FA07F040EA0808E078282803D1012083
:106C4000B040686105E0E078482802D10120B040FA
:106C50002861761C082EDDD3C5F800802088FF2827
:106C60002BDDD5F80480002623E006F10800012181
:106C700001FA00F7208800EA070ABA4518D1B700E0
:106C80000F2000FA07FB28EA0B0809FA07F040EA90
:106C90000808E078282803D106F1080081406961DE
:106CA000E078482804D106F10800012181402961DB
:106CB000761C082ED9D3C5F80480BDE8F09F0000EB
:106CC00000080140000C0140001001400014014088
:106CD00000180140001C01400020014053746D4C1D
:106CE00069625C53544D3332463130785F5374647B
:106CF0005065726970685F4472697665725C737220
:106D0000635C73746D3332663130785F6770696FBE
:106D10002E6300002DE9F04704460E460027B846D2
:106D20000025A946012C7DD0022C7BD0042C79D0E3
:106D3000082C77D0694884427FD06848203084424C
:106D40007BD06748844278D065488030844274D0D4
:106D50006448844271D0644884426ED0634884425F
:106D60006BD06348844268D06248844265D0B4F5F1
:106D7000805F62D0B4F5EA1F5FD0B4F5EB1F5CD042
:106D8000B4F5004F59D05C48844256D0401C844230
:106D900053D0801C844250D0001D84424DD05648B0
:106DA0000F30844249D0B4F1201F46D04FEAF03072
:106DB000844242D0514884423FD0514884423CD022
:106DC0005048844239D05048844236D04F4884429B
:106DD00033D0B4F5011F30D04D4884422DD0401C33
:106DE00084422AD0801C844227D0001D844224D0B3
:106DF00047480F30844220D045481F3084421CD081
:106E000043483F30844218D041487F30844214D0F8
:106E10003F48FF30844210D03E4884420DD03E4867
:106E2000844200E009E008D03C48844205D03C4858
:106E3000844202D03B48844200D104E040F22A213F
:106E400039A004F05BFD0EB1012E00D104E040F248
:106E50002B2135A004F052FD04F00040B0F1004FAA
:106E600002D13F48C56901E03D484568C4F3034984
:106E7000A7B204F44010B0F5401F08D125F07065AA
:106E80003748406820F070603549486013E004F4EA
:106E90008010B0F5801F07D1032000FA09F825EA19
:106EA000080545F0706506E0600D000107FA00F086
:106EB000854345F0706526B1600D010107FA01F0C8
:106EC000054304F00040B0F1004F02D12448C561F1
:106ED00001E023484560BDE8F08700001000140081
:106EE00040001600000118000002180000031800FE
:106EF00000081A00000C1A000100200000013000F8
:106F000000023000000430000011200000202000AA
:106F10000100008000020080000400800008008062
:106F2000001000800020008053746D4C69625C5337
:106F3000544D3332463130785F5374645065726912
:106F400070685F4472697665725C7372635C7374B7
:106F50006D3332663130785F6770696F2E63000081
:106F60000000014070B505460C46002628488542C1
:106F700011D0284885420ED0274885420BD027489B
:106F8000854208D02648854205D02648854202D051
:106F90002548854200D104E04FF48F7123A004F00E
:106FA000ADFC012C25D0022C23D0042C21D0082CA0
:106FB0001FD0102C1DD0202C1BD0402C19D0802C81
:106FC00017D0B4F5807F14D0B4F5007F11D0B4F59C
:106FD000806F0ED0B4F5006F0BD0B4F5805F08D091
:106FE000B4F5005F05D0B4F5804F02D0B4F5004F82
:106FF00000D104E040F21F110CA004F07FFCA8684F
:10700000204008B1012600E00026304670BD000097
:1070100000080140000C0140001001400014014034
:1070200000180140001C01400020014053746D4CC9
:1070300069625C53544D3332463130785F53746427
:107040005065726970685F4472697665725C7372CC
:10705000635C73746D3332663130785F6770696F6B
:107060002E63000070B505460C4600262848854270
:1070700011D0284885420ED0274885420BD027489A
:10708000854208D02648854205D02648854202D050
:107090002548854200D104E04FF4A27123A004F0FA
:1070A0002DFC012C25D0022C23D0042C21D0082C1F
:1070B0001FD0102C1DD0202C1BD0402C19D0802C80
:1070C00017D0B4F5807F14D0B4F5007F11D0B4F59B
:1070D000806F0ED0B4F5006F0BD0B4F5805F08D090
:1070E000B4F5005F05D0B4F5804F02D0B4F5004F81
:1070F00000D104E040F245110CA004F0FFFBE86869
:10710000204008B1012600E00026304670BD000096
:1071100000080140000C0140001001400014014033
:1071200000180140001C01400020014053746D4CC8
:1071300069625C53544D3332463130785F53746426
:107140005065726970685F4472697665725C7372CB
:10715000635C73746D3332663130785F6770696F6A
:107160002E63000070B504460D461348844211D0CA
:10717000124884420ED0124884420BD011488442F7
:1071800008D01148844205D01048844202D01048EB
:10719000844200D104E040F279110EA004F0AEFB6D
:1071A000002008B905B104E04FF4BD7109A004F056
:1071B000A5FB656170BD000000080140000C0140A6
:1071C000001001400014014000180140001C014063
:1071D0000020014053746D4C69625C53544D33324E
:1071E000463130785F5374645065726970685F44EB
:1071F00072697665725C7372635C73746D33326648
:107200003130785F6770696F2E63000070B5044697
:107210000D461348844211D0124884420ED01248C1
:1072200084420BD01148844208D01148844205D0D2
:107230001048844202D01048844200D104E040F259
:1072400069110EA004F05AFB002008B905B104E052
:107250004FF4B57109A004F051FB256170BD000029
:1072600000080140000C01400010014000140140E2
:1072700000180140001C01400020014053746D4C77
:1072800069625C53544D3332463130785F537464D5
:107290005065726970685F4472697665725C73727A
:1072A000635C73746D3332663130785F6770696F19
:1072B0002E63000000200549096801F00801044A16
:1072C0001268C2F3421241EA02007047080C014002
:1072D000081401402DE9F0414FF0FF310C460D46F6
:1072E0000F468846FFF7E6FF0F2808D110213848DF
:1072F000FBF7FDFF4FF0FF300146BDE8F0810126AE
:1073000058E04FF480713348FFF780FF4FF400716D
:107310003048FFF77BFF012E04D131022D48FFF7E3
:1073200021FF05E0022E03D131022A48FFF71AFFA0
:1073300029480068C0F3401048B9012E02D1274CFB
:10734000651330E0022E2ED1254C65122BE0224829
:107350000068C0F3801048B9012E02D1214CA5135A
:1073600021E0022E1FD1204CA5121CE01A48006813
:10737000C0F3C01048B9012E02D11C4CE51312E035
:10738000022E10D11A4CE5120DE01A480068C0F325
:10739000C00040B9012E02D1174C251403E0022E83
:1073A00001D1164C25134FF0FF3104EA010705EA1D
:1073B00001087600042EA4D1B1010648FFF7D2FEE1
:1073C000F1010448FFF7CEFE3846414695E700003C
:1073D0005F2000200018014008140140EFEFFFFF7C
:1073E000FEFEFFFFDFDFFFFFFDFDFFFFBFBFFFFF73
:1073F000FBFBFFFF080C01407F7FFFFFF7F7FFFF5C
:107400000AA003F0B7FB012080F3138800BF00BF80
:107410000E48006800F4E0600D490843001D0B4968
:107420000860BFF34F8F00BF00BFFEE72D205265FD
:107430007365742066726F6D203A20486172642013
:107440004661756C742E2E2E000000000CED00E0DD
:107450000000FA054CF6CC40014908607047000076
:10746000003000404AF6AA20014908607047000039
:107470000030004010B504465CB1012C09D0022C4C
:1074800007D0032C05D0042C03D0052C01D0062CEA
:1074900000D103E0732103A004F030FA0F484460E8
:1074A00010BD000053746D4C69625C53544D33320F
:1074B000463130785F5374645065726970685F4418
:1074C00072697665725C7372635C73746D33326675
:1074D0003130785F697764672E63000000300040C8
:1074E00010B50446B4F5805F00DA03E0802103A004
:1074F00004F004FA0F48846010BD000053746D4C12
:1075000069625C53544D3332463130785F53746452
:107510005065726970685F4472697665725C7372F7
:10752000635C73746D3332663130785F697764679A
:107530002E6300000030004010B5044645F255505F
:10754000844200D004B903E05F2103A004F0D6F91F
:107550000F48046010BD000053746D4C69625C53A9
:10756000544D3332463130785F53746450657269DC
:1075700070685F4472697665725C7372635C737481
:107580006D3332663130785F697764672E6300004F
:107590000030004070B5FFF79DFE04460D462E48B2
:1075A00006C884EA010085EA0201084301D02A489E
:1075B00030C020462946294B84EA030272EA0502BC
:1075C0003DD05B1080EA030272EA01022FD05A100C
:1075D000424072EA010222D09A10424072EA01024D
:1075E00015D0DA10424072EA01022CD01B1180EA59
:1075F000030272EA01021ED05A10424072EA0102EE
:1076000011D09B10584070EA010020D103E0012105
:10761000134881721CE001211148417218E00121D8
:107620000F48017214E001210D48C17110E00121E1
:107630000B4881710CE001210948417108E00121EA
:107640000748017104E001200549C87000E000BF4F
:1076500000BF044830C070BD180100207F7FFFFFCD
:107660005C2000202001002000BFFEE7704710B51D
:107670004FF440514FF0006000F0A8F810BD00003A
:107680002DE9F0410446002500270F26E07810B1CF
:10769000E078012800D103E0752121A004F02EF943
:1076A0006078102800DA03E076211DA004F026F9A6
:1076B000A078102800DA03E0772119A004F01EF961
:1076C000E07800B32248006800F4E060C0F5E060B4
:1076D000050AC5F10407EE40607800FA07F5A078C6
:1076E000304005432D011B4822788554207800F056
:1076F0001F010120884021784911890001F1E02112
:10770000C1F8000109E0207800F01F010120884045
:1077100011492278521141F82200BDE8F0810000A1
:1077200053746D4C69625C53544D3332463130783A
:107730005F5374645065726970685F4472697665FE
:10774000725C7372635C6D6973632E63000000008A
:107750000CED00E000E400E080E100E010B504463C
:10776000B4F5E06F0BD0B4F5C06F08D0B4F5A06FDE
:1077700005D0B4F5806F02D0B4F5407F00D103E0AE
:10778000632104A004F0BAF80E4820430E490860B3
:1077900010BD000053746D4C69625C53544D33321C
:1077A000463130785F5374645065726970685F4425
:1077B00072697665725C7372635C6D6973632E6364
:1077C000000000000000FA050CED00E070B5044672
:1077D0000D46B4F1005F02D0B4F1006F00D103E0B8
:1077E0009F2109A004F08AF81348854200D203E0E3
:1077F000A02105A004F082F8104905EA0100204309
:107800000F49086070BD000053746D4C69625C5391
:10781000544D3332463130785F5374645065726929
:1078200070685F4472697665725C7372635C6D69DF
:1078300073632E6300000000FFFF0F0080FFFF1F37
:1078400008ED00E00648006800F4E06005490843E0
:10785000001D03490860BFF34F8F00BFFEE7000023
:107860000CED00E00000FA0510B54FF48030FEF793
:1078700011FF042000F01EF890B10FE006F02EFD7D
:107880004FF4FA7004F064FE042000F013F80128AD
:1078900003D104A003F06EF900E000E0EEE700BFC2
:1078A00010BD00002D2050766420696E74206C6F2E
:1078B000770D0A0070B504460025012C03D0022C78
:1078C00001D0042C00D104E040F2091105A004F01D
:1078D00015F812484068204008B1012500E0002555
:1078E000284670BD53746D4C69625C53544D3332FD
:1078F000463130785F5374645065726970685F44D4
:1079000072697665725C7372635C73746D33326630
:107910003130785F7077722E630000000070004095
:1079200010B504460CB1012C00D103E08C2103A05A
:1079300003F0E4FF0F48046110BD000053746D4C68
:1079400069625C53544D3332463130785F5374640E
:107950005065726970685F4472697665725C7372B3
:10796000635C73746D3332663130785F7077722E7A
:107970006300000000000E4270B5044600256CB1A3
:10798000202C0BD0402C09D0602C07D0802C05D0A7
:10799000A02C03D0C02C01D0E02C00D103E0A22108
:1079A00004A003F0ABFF1148056825F0E00525436E
:1079B000056070BD53746D4C69625C53544D333235
:1079C000463130785F5374645065726970685F4403
:1079D00072697665725C7372635C73746D33326660
:1079E0003130785F7077722E6300000000700040C5
:1079F00070B50446002544B1B4F5804F05D0B4F508
:107A0000004F02D0B4F5404F00D104E040F2033102
:107A100004A003F073FF1148456825F44045254351
:107A2000456070BD53746D4C69625C53544D333284
:107A3000463130785F5374645065726970685F4492
:107A400072697665725C7372635C73746D333266EF
:107A50003130785F7263632E6300000000100240D3
:107A600070B504460D4640F2575024EA000008B9AC
:107A700004B104E040F233410CA003F03FFF0DB12C
:107A8000012D00D104E040F2344108A003F036FF9C
:107A90002DB11448406920431249486104E011485F
:107AA0004069A0430F49486170BD000053746D4C9C
:107AB00069625C53544D3332463130785F5374649D
:107AC0005065726970685F4472697665725C737242
:107AD000635C73746D3332663130785F7263632E2A
:107AE000630000000010024070B504460D461048C7
:107AF000204008B904B104E040F271410DA003F048
:107B0000FDFE0DB1012D00D104E040F2724109A04B
:107B100003F0F4FE2DB11548C06920431349C86134
:107B200004E01248C069A0431049C86170BD00005C
:107B30000036018153746D4C69625C53544D33328D
:107B4000463130785F5374645065726970685F4481
:107B500072697665725C7372635C73746D333266DE
:107B60003130785F7263632E6300000000100240C2
:107B700070B504460D461048204008B904B104E031
:107B800040F2CB410DA003F0B9FE0DB1012D00D1A3
:107B900004E040F2CC4109A003F0B0FE2DB115483D
:107BA000006920431349086104E012480069A043BA
:107BB0001049086170BD00000036018153746D4C9E
:107BC00069625C53544D3332463130785F5374648C
:107BD0005065726970685F4472697665725C737231
:107BE000635C73746D3332663130785F7263632E19
:107BF000630000000010024070B504460D461048B6
:107C0000204008B904B104E040F252410DA003F055
:107C100075FE0DB1012D00D104E040F2534109A0E1
:107C200003F06CFE2DB1154880692043134988612B
:107C300004E012488069A0431049886170BD0000CB
:107C40000200C0FF53746D4C69625C53544D333273
:107C5000463130785F5374645065726970685F4470
:107C600072697665725C7372635C73746D333266CD
:107C70003130785F7263632E6300000000100240B1
:107C800070B504460D461048204008B904B104E020
:107C900040F2AC410DA003F031FE0DB1012D00D139
:107CA00004E040F2AD4109A003F028FE2DB11548D3
:107CB000C06820431349C86004E01248C068A0436C
:107CC0001049C86070BD00000200C0FF53746D4CC5
:107CD00069625C53544D3332463130785F5374647B
:107CE0005065726970685F4472697665725C737220
:107CF000635C73746D3332663130785F7263632E08
:107D0000630000000010024030B500210022002472
:107D100000232D4D6D6805F00C0121B1042905D01B
:107D2000082923D105E0294D056022E0274D056093
:107D30001FE0254D6D6805F47012234D6D6805F444
:107D40008034022505EB92421CB9214D5543056054
:107D50000BE01D4D6D6805F400351DB11C4D5543FC
:107D6000056002E0194D5543056002E0174D0560BE
:107D700000BF00BF144D6D6805F0F0010909154DF5
:107D80006B5C0568DD4045600F4D6D6805F4E06192
:107D9000090A104D6B5C4568DD4085600A4D6D68D1
:107DA00005F46051C90A0B4D6B5C4568DD40C56048
:107DB000054D6D6805F44041890B074D6B5CC56846
:107DC000B5FBF3F5056130BD0010024000127A00EA
:107DD00000093D003C0300204C0300207047704721
:107DE00010B504210548FFF7BDF94FF4FA7004F00F
:107DF000AFFB04210148FFF709FA10BD001801404C
:107E000070B504460D461248844205D0114884429C
:107E100002D01148844200D104E04FF4D7710FA082
:107E200003F06CFD0DB1012D00D104E040F2AF1163
:107E30000AA003F063FD25B1208840F040002080B7
:107E400004E020884FF6BF710840208070BD00001C
:107E50000030014000380040003C004053746D4C3D
:107E600069625C53544D3332463130785F537464E9
:107E70005065726970685F4472697665725C73728E
:107E8000635C73746D3332663130785F7370692E62
:107E90006300000010B504461848844205D0184815
:107EA000844202D01748844200D103E07A2116A010
:107EB00003F024FD1148844208D101218014FFF70A
:107EC000DFFE0021A014FFF7DBFE16E00C48844221
:107ED00008D101210014FFF74BFE00212014FFF709
:107EE00047FE0AE00748844207D10121C013FFF78B
:107EF0003FFE0021E013FFF73BFE10BD00300140C4
:107F000000380040003C004053746D4C69625C5383
:107F1000544D3332463130785F5374645065726922
:107F200070685F4472697665725C7372635C7374C7
:107F30006D3332663130785F7370692E63000000F4
:107F400070B505460C4600261648854205D01648F1
:107F5000854202D01548854200D104E040F202314A
:107F600013A003F0CBFC802C0DD0402C0BD0202C88
:107F700009D0102C07D0082C05D0042C03D0022CDB
:107F800001D0012C00D104E040F2033108A003F03D
:107F9000B5FC2889204008B1012600E000263046C3
:107FA00070BD00000030014000380040003C00403F
:107FB00053746D4C69625C53544D333246313078A2
:107FC0005F5374645065726970685F447269766566
:107FD000725C7372635C73746D3332663130785FD8
:107FE0007370692E6300000010B50446084884428F
:107FF00005D00848844202D00748844200D104E0FA
:1080000040F2362105A003F079FCA08910BD0000E4
:108010000030014000380040003C004053746D4C7B
:1080200069625C53544D3332463130785F53746427
:108030005065726970685F4472697665725C7372CC
:10804000635C73746D3332663130785F7370692EA0
:108050006300000070B504460D460848844205D010
:108060000748844202D00748844200D104E040F22D
:10807000262105A003F042FCA58170BD003001401F
:1080800000380040003C004053746D4C69625C5302
:10809000544D3332463130785F53746450657269A1
:1080A00070685F4472697665725C7372635C737446
:1080B0006D3332663130785F7370692E6300000073
:1080C00070B505460C4600264F48854205D04F48FE
:1080D000854202D04E48854200D103E0A3214DA045
:1080E00003F00CFC208858B12088B0F5806F07D0D1
:1080F0002088B0F5004F03D02088B0F5404F00D164
:1081000003E0A62143A003F0F9FB6088B0F5827F6D
:1081100001D0608800B903E0A7213EA003F0EEFB88
:10812000A088B0F5006F01D0A08800B903E0A821B5
:1081300038A003F0E3FBE08810B1E088022800D10A
:1081400003E0A92133A003F0D9FB208910B12089D5
:10815000012800D103E0AA212EA003F0CFFB608903
:10816000B0F5007F01D0608900B903E0AB2129A000
:1081700003F0C4FBA089A0B1A089082811D0A08970
:1081800010280ED0A08918280BD0A089202808D04C
:10819000A089282805D0A089302802D0A0893828B5
:1081A00000D103E0AC211BA003F0A8FBE08910B1D3
:1081B000E089802800D103E0AD2116A003F09EFBEA
:1081C000208A012800DB03E0AE2112A003F096FB19
:1081D0002E8806F44156208861880843A188084308
:1081E000E18808432189084361890843A18908433C
:1081F000E189084306432E80A88B4FF2FF710840A7
:10820000A883208A288270BD0030014000380040D9
:10821000003C004053746D4C69625C53544D3332E2
:10822000463130785F5374645065726970685F449A
:1082300072697665725C7372635C73746D333266F7
:108240003130785F7370692E6300000010B500F064
:1082500001F810BD0CB50020019000905648006850
:1082600040F480305449086000BF5348006800F46F
:10827000003000900198401C0190009820B94FF602
:10828000FF7101988842F0D14B48006800F400303B
:1082900010B10120009001E000200090009801281A
:1082A00044D14648006840F0100044490860084640
:1082B000006820F0030008600846006840F00200F3
:1082C00008603D4840683C4948600846406848604E
:1082D0000846406840F4806048600846406820F4E2
:1082E0007C1048600846406840F4E8104860084642
:1082F000006840F08070086000BF2F48006800F000
:1083000000700028F9D02C48406820F003002A496A
:1083100048600846406840F00200486000BF2648B8
:10832000406800F00C000828F9D143E023480068B9
:1083300040F01000214908600846006820F0030062
:1083400008600846006840F0020008601A4840686B
:10835000194948600846406848600846406840F44B
:10836000806048600846406820F47C1048600846F9
:10837000406840F4E01048600846006840F08070B3
:10838000086000BF0C48006800F000700028F9D0B9
:108390000948406820F003000749486008464068E3
:1083A00040F00200486000BF0348406800F00C0045
:1083B0000828F9D10CBD0000001002400020024046
:1083C00010B505F08FFF05F031FC1348006840F050
:1083D00001001149086008464068104908400E49EC
:1083E0004860084600680E4908400B490860084686
:1083F000006820F4802008600846406820F4FE00F1
:1084000048604FF41F008860FFF720FF4FF00060C6
:108410000449086010BD0000001002400000FFF891
:10842000FFFFF6FE08ED00E0F0B50C461546002211
:108430000021068C4FF6FE773E400684028B018CAD
:108440004FF60C7632407E1C06EA03162E4332436A
:10845000104EB0420ED0104EB0420BD0B0F1804F53
:1084600008D00E4EB04205D00D4EB04202D00D4E97
:10847000B04206D14FF6FD76314044F0010631435B
:1084800005E04FF6F576314044F0010631430283B2
:108490000184F0BD002C0140003401400004004084
:1084A00000080040000C0040F0B50C4615460022C4
:1084B00000210026078C4FF6EF7C07EA0C070784A3
:1084C000028B018C4FF6FF7707EA041640F6FF4750
:1084D0003A404FF6FF7707EA03373A434FF6FF7704
:1084E00007EA05273A43114FB8420ED0104FB84261
:1084F0000BD0B0F1804F08D00E4FB84205D00E4FD0
:10850000B84202D00D4FB84206D14FF6DF7739405E
:1085100046F01007394305E04FF65F77394044F0E5
:108520001007394302830184F0BD0000002C014094
:10853000003401400004004000080040000C0040EE
:10854000F0B50C461546002200210026078C4FF698
:10855000FF6C07EA0C070784828B018C4FF6FF77CC
:1085600007EA04264FF60C773A404FF6FF7707EA02
:1085700003172F433A43114FB8420ED0104FB84261
:108580000BD0B0F1804F08D00E4FB84205D00E4F3F
:10859000B84202D00D4FB84206D14FF6FF573940CE
:1085A00046F48077394305E04FF2FF57394044F4F1
:1085B0008077394382830184F0BD0000002C0140A4
:1085C000003401400004004000080040000C00405E
:1085D000F0B50C461546002200210026078C4EF609
:1085E000FF7C07EA0C070784828B018C4FF6FF772C
:1085F00007EA043640F6FF473A404FF6FF7707EAAE
:1086000005273A434FF6FF7707EA03373A43114FFE
:10861000B8420ED0104FB8420BD0B0F1804F08D006
:108620000E4FB84205D00E4FB84202D00D4FB8429F
:1086300006D14DF6FF77394046F48057394305E0BF
:1086400047F6FF57394044F4805739438283018409
:10865000F0BD0000002C0140003401400004004047
:1086600000080040000C00407047000010B517489B
:10867000008800F00100F8B11448001F008800F0E5
:108680000100C8B112480079B0B110211148FEF7BD
:10869000E9FC20B110210F48FEF764FD03E0102132
:1086A0000C48FEF7B3FD20210A48FEF7DBFC20B1A1
:1086B00020210848FEF756FD03E020210548FEF77B
:1086C000A5FD4FF6FE700149088010BD1004004062
:1086D000360300200018014010B51348008A00F04E
:1086E0000100E0B11048808900F00100B8B10F48E6
:1086F0000068401C0D49086008460068401C08B925
:1087000000200860094800680A21B0FBF1F201FB73
:10871000120020B906480168022005F013FC4FF64C
:10872000FE700149088210BD0010004024030020A3
:108730002C03002010B52F48008800F0020088B1FB
:108740002C48001F008800F0020058B1294824304E
:1087500001880122284805F009FC4FF6FD702549E3
:10876000088046E02348008800F0040090B12148CA
:10877000001F008800F0040060B11E482830018806
:1087800001221D482C3005F0F1FB4FF6FB70194912
:1087900008802EE01748008800F0080090B11548C6
:1087A000001F008800F0080060B112482C300188DA
:1087B00001221148583005F0D9FB4FF6F7700D49EA
:1087C000088016E00B48008800F0100088B10948C6
:1087D000001F008800F0100058B1064830300188B2
:1087E00001220548843005F0C1FB4FF6EF700149C6
:1087F000088010BD10340140C401002070B504464B
:108800000D46274884422FD0B4F1804F2CD0254804
:10881000844229D02448844226D02448844223D04C
:108820002348844220D0234884421DD022488442D9
:108830001AD02248844217D02148844214D02148BB
:10884000844211D0204884420ED0204884420BD06C
:108850001F48844208D01F48844205D01E488442E5
:1088600002D01E48844200D104E040F284511CA092
:1088700003F044F80DB1012D00D104E040F2855120
:1088800017A003F03BF825B1208840F0800020803D
:1088900004E020884FF67F710840208070BD000002
:1088A000002C01400004004000080040000C004083
:1088B000001000400014004000340140004C014012
:1088C000005001400054014000180040001C0040CE
:1088D00000200040004001400044014000480140A9
:1088E00053746D4C69625C53544D33324631307869
:1088F0005F5374645065726970685F44726976652D
:10890000725C7372635C73746D3332663130785F9E
:1089100074696D2E6300000070B504460D4623484F
:1089200084422FD0B4F1804F2CD02148844229D0EA
:108930002048844226D02048844223D01F488442C5
:1089400020D01F4884421DD01E4884421AD01E48A1
:10895000844217D01D48844214D01D48844211D04F
:108960001C4884420ED01C4884420BD01B488442D1
:1089700008D01B48844205D01A48844202D01A48C5
:10898000844200D104E040F62B2118A002F0B6FF8B
:1089900005F4614008B905B104E040F62C2113A0AC
:1089A00002F0ACFFE843208270BD0000002C0140C3
:1089B0000004004000080040000C0040001000408F
:1089C0000014004000340140004C014000500140C0
:1089D0000054014000180040001C004000200040EE
:1089E00000400140004401400048014053746D4C78
:1089F00069625C53544D3332463130785F5374644E
:108A00005065726970685F4472697665725C7372F2
:108A1000635C73746D3332663130785F74696D2EC8
:108A20006300000070B504460D46274884422FD0ED
:108A3000B4F1804F2CD02548844229D02448844268
:108A400026D02448844223D02348844220D023487F
:108A500084421DD0224884421AD02248844217D032
:108A60002148844214D02148844211D020488442B5
:108A70000ED0204884420BD01F48844208D01F48A3
:108A8000844205D01E48844202D01E48844200D150
:108A900004E040F229311CA002F030FF0DB1012D9D
:108AA00000D104E040F22A3117A002F027FF25B1DF
:108AB000208840F00100208004E020884FF6FE71FD
:108AC0000840208070BD0000002C014000040040E0
:108AD00000080040000C004000100040001400405E
